:020000040800F2
:10000000005000200D4C0008398A00083D8A000885
:10001000418A0008458A0008498A0008000000005B
:100020000000000000000000000000004D8A0008F1
:10003000518A000800000000558A0008598A00080B
:10004000594C0008594C0008594C0008594C0008FC
:10005000594C0008594C0008594C0008594C0008EC
:10006000594C0008594C0008594C0008F548000844
:10007000594C0008594C0008594C0008594C0008CC
:10008000594C0008594C000859480008594C0008C0
:10009000594C0008594C0008594C0008594C0008AC
:1000A000594C0008594C0008594C0008FD460008FE
:1000B000594C0008594C0008594C0008594C00088C
:1000C000594C0008594C0008594C0008594C00087C
:1000D000594C0008594C0008594C0008594C00086C
:1000E000594C0008594C0008594C00080000000009
:1000F0000000000000000000000000000000000000
:0C01000000000000000000005FF808F1A3
:10011000830770B5064614D10368A3F1013222EAC1
:10012000030313F0803F0CD1031D1A4653F8044B10
:10013000A4F1013525EA040414F0803FF5D01046FF
:1001400000E0304603782BB1431C18460133047895
:10015000002CFAD100F002F8304670BD80EA0102AE
:10016000844612F0030F4FD111F0030F32D14DF836
:10017000044D11F0040F51F8043B0BD0A3F10132F0
:100180009A4312F0803F04BF4CF8043B51F8043B03
:1001900016D100BF51F8044BA3F101329A4312F07B
:1001A000803FA4F101320BD14CF8043BA24312F082
:1001B000803F04BF51F8043B4CF8044BEAD023467F
:1001C0000CF8013B13F0FF0F4FEA3323F8D15DF831
:1001D000044B704711F0010F06D011F8012B0CF8F9
:1001E000012B002A08BF704711F0020FBFD031F871
:1001F000022B12F0FF0F16BF2CF8022B8CF80020F8
:1002000012F47F4FB3D1704711F8012B0CF8012B7A
:10021000002AF9D1704700BF20F0030110F003005D
:10022000C0F1000051F8043B00F1040C4FEACC0C83
:100230006FF000021CBF22FA0CF213434FF0010CC6
:100240004CEA0C2C4CEA0C4CA3EB0C0222EA030205
:1002500012EACC1204BF51F8043B0430F4D013F07E
:10026000FF0F1FBF013013F47F4F013013F47F0FD6
:1002700018BF0130704700BF2DE9F0478AB004462F
:100280000D4600F04FF840F2000AC2F2000A9AF957
:100290000030013306460F460FD02046294600F0B5
:1002A00007F950B14FF000084FF0000920462946E9
:1002B00042464B4600F056FD20B9304639460AB05A
:1002C000BDE8F0879AF800604BF27463C0F6000353
:1002D0000122CDE904458DE80C000023CDE902455B
:1002E000089356B9CDE90689684600F009F970B15E
:1002F000089B8BB9DDE90667DFE740464946424681
:100300004B4600F0E7FB022ECDE90601ECD100F0F0
:10031000F9F821230360EBE700F0F4F8089B036091
:10032000E8E700BF2DE9F8430027B946C7F6F077A4
:10033000C7F6F0790F404F4504460D4602460B467E
:100340000E46804600F09980002977DD0F1500F0F9
:10035000828026F07F43A7F2FF3723F47003FA0769
:1003600043F4801344BF4FEAD8724FEA48084FF075
:10037000000C48BF02EB430360464FEAD8727F107F
:1003800002EB430316244FEA48024FF400114518CC
:10039000D60F9D424FEA4202DEBFC5EB0303681849
:1003A0008C444908013C06EB4303F0D12026A046CB
:1003B0004FF000410EE081461B1A954288BF013B79
:1003C000521B64184846D50F49085200013E05EB00
:1003D000430315D0984201EB080503DB954298BF13
:1003E0008342F0D105F0004905EB0108B9F1004F57
:1003F000E1D1B8F1000FA8BF00F10109DCDADAE7BA
:10040000134312D166084FEA6C031CF0010F03F18D
:100410007F5318BF46F0004603F50013344603EB44
:10042000075520462946BDE8F883631C08BF0CF138
:10043000010CE8D004F001031C19E3E721F00046A9
:100440000643EED041BB0F464FEAD826153F4FEA90
:100450004858002EF8D016F4801319D176000133D5
:10046000F102FBD5C3F10101C3F1200228FA02F227
:100470007F18164308FA03F86BE700F001FA02460A
:100480000B462046294600F049F804460D46C8E7C9
:10049000202201210023E9E702460B4600F03CF848
:1004A00002460B4600F016FB04460D46B9E700BFB6
:1004B00050EA010201D102207047D0F1010238BF99
:1004C0000022B1F1004F08BF0028F4D021F0004312
:1004D0004FF6FF71A3F58010C7F6DF71884201D88F
:1004E00004207047B3F5801F01D20320704700201D
:1004F000C7F6F070834214BF002002F0010070477D
:100500000020704740F20403C2F2000318687047ED
:1005100081F0004102E000BF83F0004330B54FEAB4
:1005200041044FEA430594EA050F08BF90EA020F21
:100530001FBF54EA000C55EA020C7FEA645C7FEAB4
:10054000655C00F0E2804FEA5454D4EB5555B8BFD7
:100550006D420CDD2C4480EA020281EA030382EA48
:10056000000083EA010180EA020281EA0303362DDA
:1005700088BF30BD11F0004F4FEA01314FF4801CAD
:100580004CEA113102D0404261EB410113F0004FBF
:100590004FEA03334CEA133302D0524263EB430376
:1005A00094EA050F00F0A780A4F10104D5F1200E14
:1005B0000DDB02FA0EFC22FA05F2801841F100016F
:1005C00003FA0EF2801843FA05F359410EE0A5F143
:1005D00020050EF1200E012A03FA0EFC28BF4CF074
:1005E000020C43FA05F3C01851EBE37101F000452A
:1005F00007D54FF0000EDCF1000C7EEB00006EEB37
:100600000101B1F5801F1BD3B1F5001F0CD34908C0
:100610005FEA30004FEA3C0C04F101044FEA445217
:1006200012F5800F80F09A80BCF1004F08BF5FEA9E
:10063000500C50F1000041EB045141EA050130BD7E
:100640005FEA4C0C404141EB010111F4801FA4F121
:100650000104E9D191F0000F04BF01460020B1FA76
:1006600081F308BF2033A3F10B03B3F120020CDAAE
:100670000C3208DD02F1140CC2F10C0201FA0CF08C
:1006800021FA02F10CE002F11402D8BFC2F1200CF1
:1006900001FA02F120FA0CFCDCBF41EA0C019040A7
:1006A000E41AA2BF01EB0451294330BD6FEA0404F0
:1006B0001F3C1CDA0C340EDC04F11404C4F12002DB
:1006C00020FA04F001FA02F340EA030021FA04F3ED
:1006D00045EA030130BDC4F10C04C4F1200220FA44
:1006E00002F001FA04F340EA0300294630BD21FA82
:1006F00004F0294630BD94F0000F83F4801306BF48
:1007000081F480110134013D4EE77FEA645C18BF3B
:100710007FEA655C29D094EA050F08BF90EA020FD2
:1007200005D054EA000C04BF1946104630BD91EACA
:10073000030F1EBF0021002030BD5FEA545C05D1CD
:100740004000494128BF41F0004130BD14F580040C
:100750003CBF01F5801130BD01F0004545F0FE4180
:1007600041F470014FF0000030BD7FEA645C1ABFB5
:10077000194610467FEA655C1CBF0B46024650EAEC
:10078000013406BF52EA033591EA030F41F4002118
:1007900030BD00BF90F0000F04BF0021704730B59E
:1007A0004FF4806404F132044FF000054FF0000173
:1007B00050E700BF90F0000F04BF0021704730B534
:1007C0004FF4806404F1320410F0004548BF404209
:1007D0004FF000013EE700BF42004FEAE2014FEA5E
:1007E00031014FEA02701FBF12F07F4393F07F4F39
:1007F00081F06051704792F0000F14BF93F07F4F6B
:10080000704730B54FF4607401F0004521F00041AD
:1008100020E700BF50EA010208BF704730B54FF033
:1008200000050AE050EA010208BF704730B511F038
:10083000004502D5404261EB41014FF4806404F170
:1008400032045FEA915C3FF4DCAE4FF003025FEAF2
:10085000DC0C18BF03325FEADC0C18BF033202EB7A
:10086000DC02C2F1200300FA03FC20FA02F001FAD4
:1008700003FE40EA0E0021FA02F11444C1E600BF73
:1008800070B54FF0FF0C4CF4E06C1CEA11541DBF26
:100890001CEA135594EA0C0F95EA0C0F00F0DEF8F1
:1008A0002C4481EA030621EA4C5123EA4C5350EAD6
:1008B000013518BF52EA033541F4801143F4801327
:1008C00038D0A0FB02CE4FF00005E1FB02E506F0B8
:1008D0000042E0FB03E54FF00006E1FB03569CF00D
:1008E000000F18BF4EF0010EA4F1FF04B6F5007F13
:1008F00064F5407404D25FEA4E0E6D4146EB060685
:1009000042EAC62141EA55514FEAC52040EA5E500D
:100910004FEACE2EB4F1FD0C88BFBCF5E06F1ED8B7
:10092000BEF1004F08BF5FEA500E50F1000041EBEE
:10093000045170BD06F0004646EA010140EA02009B
:1009400081EA0301B4EB5C04C2BFD4EB0C0541EABD
:10095000045170BD41F480114FF0000E013C00F3D2
:10096000AB8014F1360FDEBF002001F0004170BDF6
:10097000C4F10004203C35DA0C341BDC04F114040F
:10098000C4F1200500FA05F320FA04F001FA05F29B
:1009900040EA020001F0004221F0004110EBD37068
:1009A00021FA04F642EB06015EEA430E08BF20EA94
:1009B000D37070BDC4F10C04C4F1200500FA04F337
:1009C00020FA05F001FA04F240EA020001F00041C9
:1009D00010EBD37041F100015EEA430E08BF20EA3C
:1009E000D37070BDC4F1200500FA05F24EEA020E84
:1009F00020FA04F301FA05F243EA020321FA04F0B3
:100A000001F0004121FA04F220EA020000EBD37069
:100A10005EEA430E08BF20EAD37070BD94F0000F69
:100A20000FD101F00046400041EB010111F4801F9D
:100A300008BF013CF7D041EA060195F0000F18BF4E
:100A4000704703F00046520043EB030313F4801F8A
:100A500008BF013DF7D043EA0603704794EA0C0F44
:100A60000CEA135518BF95EA0C0F0CD050EA41065A
:100A700018BF52EA4306D1D181EA030101F00041D7
:100A80004FF0000070BD50EA410606BF10461946FF
:100A900052EA430619D094EA0C0F02D150EA01360B
:100AA00013D195EA0C0F05D152EA03361CBF10464C
:100AB00019460AD181EA030101F0004141F0FE41EB
:100AC00041F470014FF0000070BD41F0FE4141F46F
:100AD000780170BD70B54FF0FF0C4CF4E06C1CEA6F
:100AE00011541DBF1CEA135594EA0C0F95EA0C0F24
:100AF00000F0A7F8A4EB050481EA030E52EA0335DF
:100B00004FEA013100F088804FEA03334FF08055FF
:100B100045EA131343EA12634FEA022245EA11152C
:100B200045EA10654FEA00260EF000419D4208BFDD
:100B3000964244F1FD0404F5407402D25B084FEA8A
:100B40003202B61A65EB03055B084FEA32024FF436
:100B500080104FF4002CB6EB020E75EB030E22BF93
:100B6000B61A754640EA0C005B084FEA3202B6EB53
:100B7000020E75EB030E22BFB61A754640EA5C0002
:100B80005B084FEA3202B6EB020E75EB030E22BF92
:100B9000B61A754640EA9C005B084FEA3202B6EB93
:100BA000020E75EB030E22BFB61A754640EADC0052
:100BB00055EA060E18D04FEA051545EA16754FEAB4
:100BC00006164FEAC30343EA52734FEAC2025FEAD2
:100BD0001C1CC0D111F4801F0BD141EA00014FF061
:100BE00000004FF0004CB6E711F4801F04BF014332
:100BF0000020B4F1FD0C88BFBCF5E06F3FF6AFAE4E
:100C0000B5EB030C04BFB6EB020C5FEA500C50F1DD
:100C1000000041EB045170BD0EF0004E4EEA113160
:100C200014EB5C04C2BFD4EB0C0541EA045170BD67
:100C300041F480114FF0000E013C90E645EA060EAB
:100C40008DE60CEA135594EA0C0F08BF95EA0C0FD9
:100C50003FF43BAF94EA0C0F0AD150EA01347FF421
:100C600034AF95EA0C0F7FF425AF104619462CE7F8
:100C700095EA0C0F06D152EA03353FF4FDAE10465B
:100C8000194622E750EA410618BF52EA43067FF4AC
:100C9000C5AE50EA41047FF40DAF52EA43057FF43C
:100CA000EBAE12E74FF0FF3C06E000BF4FF0010C47
:100CB00002E000BF4FF0010C4DF804CD4FEA410CAB
:100CC0007FEA6C5C4FEA430C18BF7FEA6C5C1BD078
:100CD00001B050EA410C0CBF52EA430C91EA030FF9
:100CE00002BF90EA020F0020704710F1000F91EA56
:100CF000030F58BF994208BF90422CBFD8176FEA24
:100D0000E37040F0010070474FEA410C7FEA6C5CF1
:100D100002D150EA013C07D14FEA430C7FEA6C5CF8
:100D2000D6D152EA033CD3D05DF8040B704700BF24
:100D30008446104662468C461946634600E000BF72
:100D400001B5FFF7B7FF002848BF10F1000F01BD44
:100D50004DF808EDFFF7F4FF0CBF012000205DF80F
:100D600008FB00BF4DF808EDFFF7EAFF34BF012094
:100D700000205DF808FB00BF4DF808EDFFF7E0FF2D
:100D800094BF012000205DF808FB00BF4DF808ED7E
:100D9000FFF7CEFF94BF012000205DF808FB00BFE5
:100DA0004DF808EDFFF7C4FF34BF012000205DF8C7
:100DB00008FB00BF4FEA410212F5001215D211D50F
:100DC0006FF47873B3EB625212D94FEAC12343F048
:100DD000004343EA505311F0004F23FA02F018BFCA
:100DE000404270474FF00000704750EA013005D193
:100DF00011F0004008BF6FF0004070474FF0000056
:100E0000704700BF4FEA4102B2F1E04324BFB3F59F
:100E1000001CDCF1FE5C0DD901F0004C4FEAC00271
:100E20004CEA5070B2F1004F40EB830008BF20F055
:100E30000100704711F0804F21D113F13872BCBF0F
:100E400001F00040704741F480114FEA5252C2F164
:100E50001802C2F1200C10FA0CF320FA02F018BFAD
:100E600040F001004FEAC1234FEAD32303FA0CFC00
:100E700040EA0C0023FA02F34FEA4303CCE77FEA8F
:100E8000625307D150EA01331EBF4FF0FE4040F4D9
:100E90004000704701F0004040F0FE4040F4000088
:100EA000704700BF80F0004002E000BF81F00041C9
:100EB00042001FBF5FEA410392EA030F7FEA226C00
:100EC0007FEA236C6AD04FEA1262D2EB1363C1BF90
:100ED000D218414048404140B8BF5B42192B88BFFF
:100EE000704710F0004F40F4000020F07F4018BF22
:100EF000404211F0004F41F4000121F07F4118BF42
:100F0000494292EA030F3FD0A2F1010241FA03FCE9
:100F100010EB0C00C3F1200301FA03F100F00043D1
:100F200002D5494260EB4000B0F5000F13D3B0F199
:100F3000807F06D340084FEA310102F10102FE2A08
:100F400051D2B1F1004F40EBC25008BF20F0010078
:100F500040EA03007047490040EB000010F4000F26
:100F6000A2F10102EDD1B0FA80FCACF1080CB2EBB9
:100F70000C0200FA0CF0AABF00EBC2505242184318
:100F8000BCBFD0401843704792F0000F81F40001BD
:100F900006BF80F400000132013BB5E74FEA410390
:100FA0007FEA226C18BF7FEA236C21D092EA030FFC
:100FB00004D092F0000F08BF0846704790EA010F76
:100FC0001CBF0020704712F07F4F04D1400028BFA3
:100FD00040F00040704712F100723CBF00F5000085
:100FE000704700F0004343F0FE4040F400007047BB
:100FF0007FEA226216BF08467FEA23630146420267
:1010000006BF5FEA412390EA010F40F48000704779
:101010004FF0000304E000BF10F0004348BF40421F
:101020005FEA000C08BF704743F0964301464FF05B
:1010300000001CE050EA010208BF70474FF00003B7
:101040000AE000BF50EA010208BF704711F00043F8
:1010500002D5404261EB41015FEA010C02BF8446C8
:101060000146002043F0B64308BFA3F18053A3F527
:101070000003BCFA8CF2083AA3EBC25310DB01FA6E
:1010800002FC634400FA02FCC2F12002BCF1004FF2
:1010900020FA02F243EB020008BF20F00100704783
:1010A00002F1200201FA02FCC2F1200250EA4C00D7
:1010B00021FA02F243EB020008BF20EADC7070471D
:1010C0004FF0FF0C1CEAD0521EBF1CEAD15392EA2B
:1010D0000C0F93EA0C0F6FD01A4480EA010C400207
:1010E00018BF5FEA41211ED04FF0006343EA501061
:1010F00043EA5111A0FB01310CF00040B1F5000FA3
:101100003EBF490041EAD3715B0040EA010062F151
:101110007F02FD2A1DD8B3F1004F40EBC25008BF3B
:1011200020F00100704790F0000F0CF0004C08BF59
:1011300049024CEA502040EA51207F3AC2BFD2F126
:10114000FF0340EAC250704740F400004FF0000334
:10115000013A5DDC12F1190FDCBF00F0004070476E
:10116000C2F10002410021FA02F1C2F1200200FAAC
:1011700002FC5FEA310040F1000053EA4C0308BF73
:1011800020EADC70704792F0000F00F0004C02BFC4
:10119000400010F4000F013AF9D040EA0C0093F03F
:1011A000000F01F0004C02BF490011F4000F013B99
:1011B000F9D041EA0C018FE70CEAD15392EA0C0F07
:1011C00018BF93EA0C0F0AD030F0004C18BF31F072
:1011D000004CD8D180EA010000F00040704790F048
:1011E000000F17BF90F0004F084691F0000F91F0EC
:1011F000004F14D092EA0C0F01D142020FD193EAB2
:101200000C0F03D14B0218BF084608D180EA010039
:1012100000F0004040F0FE4040F40000704740F015
:10122000FE4040F4400070474FF0FF0C1CEAD052E3
:101230001EBF1CEAD15392EA0C0F93EA0C0F69D03F
:10124000A2EB030280EA010C49024FEA402037D0AA
:101250004FF0805343EA111143EA10130CF00040A1
:101260008B4238BF5B0042F17D024FF4000C8B4291
:1012700024BF5B1A40EA0C00B3EB510F24BFA3EB71
:10128000510340EA5C00B3EB910F24BFA3EB910341
:1012900040EA9C00B3EBD10F24BFA3EBD10340EA9B
:1012A000DC001B0118BF5FEA1C1CE0D1FD2A3FF6E1
:1012B00050AF8B4240EBC25008BF20F00100704796
:1012C0000CF0004C4CEA50207F32C2BFD2F1FF0339
:1012D00040EAC250704740F400004FF00003013A6A
:1012E00037E792F0000F00F0004C02BF400010F40E
:1012F000000F013AF9D040EA0C0093F0000F01F022
:10130000004C02BF490011F4000F013BF9D041EA43
:101310000C0195E70CEAD15392EA0C0F08D1420276
:101320007FF47DAF93EA0C0F7FF470AF084676E749
:1013300093EA0C0F04D14B023FF44CAF08466EE722
:1013400030F0004C18BF31F0004CCAD130F00042F0
:101350007FF45CAF31F000437FF43CAF5FE700BF48
:101360004FF0FF3C06E000BF4FF0010C02E000BF71
:101370004FF0010C4DF804CD4FEA40024FEA410313
:101380007FEA226C18BF7FEA236C11D001B052EAC9
:10139000530C18BF90EA010F58BFB2EB030088BF8F
:1013A000C81738BF6FEAE17018BF40F001007047FE
:1013B0007FEA226C02D15FEA402C05D17FEA236CE0
:1013C000E4D15FEA412CE1D05DF8040B704700BF27
:1013D000844608466146FFE70FB5FFF7C9FF0028BE
:1013E00048BF10F1000F0FBD4DF808EDFFF7F4FFF7
:1013F0000CBF012000205DF808FB00BF4DF808ED90
:10140000FFF7EAFF34BF012000205DF808FB00BFB2
:101410004DF808EDFFF7E0FF94BF012000205DF8D4
:1014200008FB00BF4DF808EDFFF7D2FF94BF012085
:1014300000205DF808FB00BF4DF808EDFFF7C8FF7E
:1014400034BF012000205DF808FB00BF4FEA4002D6
:10145000B2F1FE4F0FD34FF09E03B3EB12620DD9E2
:101460004FEA002343F0004310F0004F23FA02F04C
:1014700018BF404270474FF00000704712F1610FF3
:1014800001D1420205D110F0004008BF6FF00040CA
:1014900070474FF00000704742000ED2B2F1FE4F8D
:1014A0000BD34FF09E03B3EB126209D44FEA002333
:1014B00043F0004323FA02F070474FF000007047FA
:1014C00012F1610F01D1420202D14FF0FF3070479B
:1014D0004FF00000704700BF90B583B000AF041C10
:1014E000081C111C1A1CBB1D1C803B1D1880BB1C3A
:1014F00019803B1C1A802A2004F062FDBB1D1B884A
:101500001B0A1B041B0C181C04F074FDBB1D1B885C
:10151000181C04F06FFDBA1D3B1D12881B88D318E0
:101520001B041A0CBB1D013A1A80BB1D1B881B0A29
:101530001B041B0C181C04F05DFDBB1D1B88181C34
:1015400004F058FD2B2004F03BFDBB1C1B881B0A3C
:101550001B041B0C181C04F04DFDBB1C1B88181C25
:1015600004F048FDBA1C3B1C12881B88D3181B04CE
:101570001A0CBB1C013A1A80BB1C1B881B0A1B04DB
:101580001B0C181C04F036FDBB1C1B88181C04F037
:1015900031FDBD4603B090BC01BC004790B585B09D
:1015A00002AF041C081C111C1A1CBB1D1C803B1D17
:1015B0001880FB1C19703B1C1A80154B1A88154BA0
:1015C0009A4210D1BB1D18883B1D1988FB1C1A7844
:1015D0003B1C1B883C1C183424880094FC69019433
:1015E00000F01AF80FE0BB1D18883B1D1988FB1C82
:1015F0001A783B1C1B883C1C183424880094FC6916
:10160000019400F0D9F8BD4603B090BC01BC00477E
:10161000C20200204193000090B587B000AF041CC7
:10162000081C111C1A1CBB1D1C803B1D1880FB1CB8
:1016300019703B1C1A80FB6A1A68FB1C1978FB6A3C
:10164000DB7AC91AFB6A9B880733002B00DA073361
:10165000DB104B43F96A89794B43D3183B61FB6A32
:101660009988FB6A9B79BA1D10883A1D1288FFF78A
:1016700033FF4D4B802292015A614B4B8022D201A5
:101680005A614A4B494AD168FF2212020A402C2172
:101690000A43DA60444B802212025A61424B802294
:1016A00012021A61404B8022D2011A61404B414A1A
:1016B0001A80FB6A9B88FA6A92795343002B00DAFE
:1016C0000733DB101A1C3B1C14331A805EE03B1CF2
:1016D00017333A6912781A703B1C163308221A70B5
:1016E00045E03B1C17331B781B061B1602D53B1C21
:1016F0001B8802E03B1C28331B883A1C0E321380E7
:101700002A4B2A4AD168FF22120211403A1C0E329B
:101710001288120A1204120C0A43DA60224B802249
:1017200012025A61204B802212021A611F4B1F4A7B
:10173000D168FF22120211403A1C0E3212880A436D
:10174000DA60194B802212025A61174B8022120272
:101750001A613B1C17333A1C1732127852001A7068
:101760003B1C16333A1C16321278013A1A703B1C95
:1017700016331B78002BB4D13B6901333B613B1C12
:1017800014333A1C14321288013A1A803B1C143369
:101790001B88002B9BD1044B802292011A61BD460D
:1017A00007B090BC01BC004700100140000C014094
:1017B000BA0200204AECFFFF90B587B000AF041CCE
:1017C000081C111C1A1CBB1D1C803B1D1880FB1C17
:1017D00019703B1C1A80FB6A1A68FB1C1978FB6A9B
:1017E000DB7AC91AFB6A9B880733002B00DA0733C0
:1017F000DB104B43F96A89794B43D3183B61BB1D1E
:101800001B885220191C03F0BFFEFB6A9A88BB1D7F
:101810001B88D3181B041B0C013B1B041B0C5320FF
:10182000191C03F0B1FE3B1D1B885020191C03F04E
:10183000ABFEFB6A9B791A1C3B1D1B88D3181B044B
:101840001B0C013B1B041B0C5120191C03F09CFEBC
:10185000BB1D1B882120191C03F096FE3B1D1B8815
:101860002020191C03F090FE03F0BAFF3F4B8022AA
:10187000D2011A613E4B3F4A1A80FB6A9B88FA6A82
:1018800092795343002B00DA0733DB101A1C3B1C00
:1018900014331A805EE03B1C17333A6912781A70D1
:1018A0003B1C163308221A7045E03B1C17331B788B
:1018B0001B061B1602D53B1C1B8802E03B1C283371
:1018C0001B883A1C0E3213802B4B2B4AD168FF2207
:1018D000120211403A1C0E321288120A1204120C23
:1018E0000A43DA60214B802212025A611F4B802288
:1018F00012021A61204B204AD168FF2212021140C5
:101900003A1C0E3212880A43DA60184B8022120207
:101910005A61164B802212021A613B1C17333A1C83
:101920001732127852001A703B1C16333A1C1632CA
:101930001278013A1A703B1C16331B78002BB4D175
:101940003B6901333B613B1C14333A1C143212884F
:10195000013A1A803B1C14331B88002B9BD103F0E7
:1019600065FFBD4607B090BC01BC004700100140B8
:10197000BA0200204AECFFFF000C014090B585B090
:1019800002AF041C081C111C1A1CBB1D1C803B1D33
:101990001880BB1C19803B1C1A80BB1C1B88013B98
:1019A0001B041B0C1B041B0CBA1D0020115E3A1DEE
:1019B0000020125E1B041B14381C18300088009095
:1019C000081C111C1A1C012304F086FD3B1D1A88FB
:1019D0003B1C1B88D3181B041B0C013B1B041B0C5A
:1019E0001B041B0CBA1D0020115E1B041B14BA1C27
:1019F0000020125E381C183000880090081C191C4A
:101A0000012304F069FD3B1C1B88013B1B041B0CDC
:101A10001B041B0CBA1D0020115E3A1D0020125E33
:101A20001B041B14381C183000880090081C111C63
:101A3000012204F051FDBB1D1A88BB1C1B88D31862
:101A40001B041B0C013B1B041B0C1B041A0C3B1C32
:101A50001B88013B1B041B0C1B041B0C12041214DF
:101A6000391D0020095E1B041B14381C1830008827
:101A70000090101C012204F02FFDBD4603B090BC65
:101A800001BC004780B500AF204B80221A801F4B5D
:101A900000229A801D4B17221A811C4B00229A812A
:101AA0001A4B00221A82194B00229A82174B184AAD
:101AB0001A83164B00229A83144B11221A84134B5B
:101AC00000229A84114B00221A85104B01225242A7
:101AD0009A850E4B0F4A9A860C4B02221A870B4BA3
:101AE00000229A87094A40230021D152074A4823FD
:101AF0000021D152054A4C230021D152034B8122AF
:101B00001A80BD4680BC01BC0047C046002C014085
:101B1000013000008813000080B500AF8023DB0592
:101B200080221A808023DB0550229A808023DB05E7
:101B300000221A818023DB0500229A818023DB05A5
:101B400000221A828023DB0500229A828023DB0593
:101B5000C022D2011A838023DB0500229A838023CE
:101B6000DB0510221A848023DB0500229A8480235F
:101B7000DB0508221A858023DB0509229A8580234C
:101B8000DB05104A9A868023DB0505221A8780230D
:101B9000DB0500229A878023DA0540230021D152F9
:101BA0008023DA0548230021D1528023DA054C2313
:101BB0000021D1528023DB0580221A80BD4680BCE3
:101BC00001BC00478813000080B500AF214B002204
:101BD0001A60204B00225A601E4B1F4A9A601D4B10
:101BE0000022DA601B4B00221A611A4B00225A6154
:101BF000184B00229A61174B0022DA61154B002224
:101C00001A62144B154A5A62124B00229A62114B07
:101C10000022DA620F4B00221A630E4B00225A6335
:101C20000C4B00229A630B4B0A4A926804210A4328
:101C30009A60C046074B9A6804231340FAD0054BBC
:101C4000044A926801210A439A60BD4680BC01BCE7
:101C50000047C0460024014000011600FF0F0000AD
:101C600080B500AF0A4B181C07F026FC084B094A48
:101C7000128A5A60064B084A9A60054B074ADA6096
:101C8000034B074A1A60BD4680BC01BC0047C046F2
:101C9000080002402C0300204C2401404003002097
:101CA000A525000080B582B000AF3B1D1B221A7035
:101CB0003B1D00225A703B1D00229A703B1D0022E2
:101CC000DA703B1D181C07F0F9F83B1D12221A7040
:101CD0003B1D00225A703B1D00229A703B1D0022C2
:101CE000DA703B1D181C07F0E9F83B1D0B221A7037
:101CF0003B1D00225A703B1D00229A703B1D0022A2
:101D0000DA703B1D181C07F0D9F8BD4602B080BC44
:101D100001BC004780B584B002AFBB1D00221A8011
:101D2000A0235B00BA1D12880092002000211A1C1B
:101D3000F02304F0D1FB414BBA1D12880092404AB7
:101D4000019218202D21002204F03EFC3B4BBA1DCD
:101D5000128800923B4A01926E202F21002204F04B
:101D600033FC394BBA1D12880092384A0192182070
:101D70006E210022FFF712FC354B0022DA80344B33
:101D800007221A71324B00225A71314B12221A70FB
:101D90002F4B00229A722E4B0022DA722C4B00221B
:101DA0009A812B4B8022D2001A82294BB5225200F5
:101DB0005A80274B1B8A5B081B041B0C1B041A0C44
:101DC000234BDA81224B00221A81224B224A9A614C
:101DD000204B00225A801F4B00221A711D4B0022FB
:101DE0001A801B4B5A881B4BDA80194B1B8A1B0429
:101DF0001A0C184B9A81194B00221A70184B194A69
:101E00001A60194B144A1A60184B194A1A80194B58
:101E100000221A80184B194A1A80194B00221A7096
:101E2000FFF730FEFFF778FEFFF7CEFEFFF718FF53
:101E3000BD4602B080BC01BC0047C046FF070000A1
:101E400044010020500100205FB300002C0100205D
:101E50002C030020A01C00206C140020BE020020D7
:101E60004C200020A5F30000C01C002050200020C2
:101E700010270000BC1C0020C6020020B80B000088
:101E8000C402002080B582B000AF0A1CBB1D011C3B
:101E900019803B1D1A80BA1D3B1D0021525E002196
:101EA0005B5E9A4202DABB1D1B8801E03B1D1B886A
:101EB0001B041B14181CBD4602B080BC02BC0847A2
:101EC00080B582B000AF0A1CBB1D011C19803B1DF0
:101ED0001A80BA1D3B1D0021525E00215B5E9A42B2
:101EE00002DDBB1D1B8801E03B1D1B881B041B146E
:101EF000181CBD4602B080BC02BC084780B584B047
:101F000000AF021C3960BB1D1A80BB1D1B88181C4A
:101F10005C4902F03DFD031C1B041A0C3B1C0F33F3
:101F20001A703B1C0F331B78302213431B061A0E0A
:101F30003B681A703B1C0F331B781B041B0C1A1CCC
:101F4000D200D21A111C49018A1A1201D31A1B019C
:101F50001B04190CBB1DBA1D12888A181A80BB1DE0
:101F60001B88181CFA23990002F012FD031C1B04A5
:101F70001A0C3B1C0F331A703B6801333A1C0F32AA
:101F8000127830210A431206120E1A703B1C0F33CE
:101F90001B781B041B0C1A1C9201D21A9201D21836
:101FA0005200D318DB001B04190CBB1DBA1D12888C
:101FB0008A181A80BB1D1B88181C642102F0E8FCDB
:101FC000031C1B041A0C3B1C0F331A703B680233B2
:101FD0003A1C0F32127830210A431206120E1A7080
:101FE0003B1C0F331B781B041B0C1A1C5202D21A09
:101FF0009200D218D200D31A9B001B04190CBB1DEF
:10200000BA1D12888A181A80BB1D1B88181C0A2149
:1020100002F0BEFC031C1B041A0C3B1C0F331A708D
:102020003B6803333A1C0F32127830210A43120600
:10203000120E1A703B1C0F331B781B041B0C1A1C4E
:102040005203D21A9200D31A5B001B04190CBB1D59
:10205000BA1D12888A181A803B680433BA1D128888
:102060001206120E30210A431206120E1A703B6835
:10207000053300221A703B68181CBD4604B080BCB2
:1020800002BC08471027000080B500AF8023DB05A5
:10209000144A127812061216511E134A49008A5A1F
:1020A000013A1204120C1A858023DB050D4A1278BE
:1020B00012061216511E0D4A49008A5A013A12049C
:1020C000120C9A858023DB058022D205928D1204A2
:1020D000120C52081204120C1A87BD4680BC01BCB7
:1020E0000047C0462C030020D80100200802002031
:1020F00080B584B002AFB84B1B882B2293431B04DE
:102100001A0CB54B1A80B44B1B881A1C04231340BD
:1021100000D059E18023DB058022D2051288120409
:10212000120C01218A431204120C1A80AB4BAB4AE9
:1021300092891204120C06218A431204120C9A810D
:10214000A74BA74A126801218A431A60A44BA44AEC
:10215000126806218A431A60A24BA24A52680F21D4
:102160000A435A60A04BA04A526820218A435A6011
:102170009D4B9D4A126802218A431A609B4B1B7833
:102180001B061B160D2B0ADC984B9B7A002B06D1E5
:10219000934B974ADA60904B954A5A6105E0904B11
:1021A000944ADA608C4B934A5A618D4B8F4A128A5B
:1021B0005A608B4B8A4A126804210A431A60874B83
:1021C0008A4A128A1A87854B844A92891204120C11
:1021D00006218A431204120C9A81804B7F4A128A8C
:1021E0001204120C06218A431204120C1A827F4B2D
:1021F0001B781B061B160D2B0DDD7C4B9B7A002BD1
:1022000009D1764B754A92891204120C04210A43B3
:102210001204120C9A81784B1B681A1C774B9A4255
:102220005DD1754B724A1A60BB1D012252421A8061
:10223000A0235B00BA1D12880092002000211A1C06
:10224000F02304F049F9BB1D1B8800936C4B0193EC
:102250001420502100221F2304F0B6F9BB1D1B8857
:102260000093684B0193182073210022002304F08F
:10227000ABF9F8231B02BA1D12880092624A019240
:102280001420B421002204F09FF9F8231B02BA1D88
:10229000128800925D4A01925A20B221002204F075
:1022A00093F9F8231B02BA1D12880092584A019232
:1022B0005A20C821002204F087F9564B564A1A804A
:1022C0004A4B1B781B061A0E544B1A70544B0022B3
:1022D0001A70544B00221A803F4B00225A80FFF79D
:1022E000D3FE424B1B781B061B160D2B10DC3F4BFD
:1022F0009B7A002B0CD13C4B3B4A526820210A436D
:102300005A60394B384A9168474A0A409A600CE053
:10231000354B354A9268802149000A439A60304B18
:102320002F4A126801210A431A60304BDB7A1B06E0
:102330001B16012B0AD1294B284A128C1204120CAD
:1023400002218A431204120C1A8409E0234B234A07
:10235000128C1204120C02210A431204120C1A8469
:102360002F4B1B78002B31D02E4B1A882F4B9A42C3
:1023700012D12C4B00221A802D4B1B78002B03D13D
:10238000154BFF225A8007E0134B5B88082213434A
:102390001B041A0C104B5A800F4B1B8880221343CE
:1023A0001B041A0C0C4B1A800C4B00229A848023BD
:1023B000DB058022D20512881204120C01210A4387
:1023C0001204120C1A8002E0C04600E0C046BD466E
:1023D00002B080BC01BC0047A01C0020002C0140C2
:1023E0000800024000000240002401402C030020AD
:1023F0006C140020400300204C200020A5F30000B6
:10240000380100202C0100200801002014010020C8
:1024100020010020C6020020AC0D0000BE020020FA
:10242000BF0200201C1F0020FFFEFFFFDC05000094
:10243000B8020020F0B5474680B486B000AF8F4B9D
:10244000802212021A618E4B1B881A1C0223134031
:1024500044D008E08A4B1A8A8A4B1B8AD31A1B0481
:102460001A0C874B1A82864B1A8A864B1B8A9A4211
:10247000F0D2854BDA68834B1B8A191C814BDB89B0
:102480001B041B14CB1A5B00191C7D4B1B8A5B00C1
:10249000CB18D3181A1C7A4B5A61794B5A697A4B6C
:1024A000D968784B1B8A5B00CB189A4208D3744BCF
:1024B0005A69744B1B8A5B005B42D218704B5A619D
:1024C000704B9B7A1B061B16022B07D16C4B1B888B
:1024D000202213431B041A0C694B1A80684B1B887B
:1024E0001A1C0423134001D000F0D7FE644B5B6933
:1024F0007B61664B3B610023BB603B1C0E33614A32
:10250000128A1A8022E07B691B889B081B041A0C24
:102510003B691A807B691B88BA68D318BB603B692A
:1025200002333B617B6902337B61564B1B8A5A0045
:10253000574BD2187B699A4201D8554B7B613B1CA3
:102540000E333A1C0E321288013A1A803B1C0E33AD
:102550001B88002BD7D14B4B1B8AB868191C02F083
:1025600017FA031C9B081B041A0C454BDA81454BD8
:102570001B781B061B16172B07D0424B1B781B061C
:102580001B16182B01D000F085FE414B7B61002308
:10259000BB603B1C0E3300221A800EE07B691B8857
:1025A000BA68D318BB607B6902337B613B1C0E3376
:1025B0003A1C0E32128801321A80324B1B8A3A1CA6
:1025C0000E3212889A42E9D32E4B1B8AB868191C26
:1025D00002F0DEF9031C9A08BB1C1A80BB1C1A8887
:1025E000274BDA81264B5B697B612A4B7B603B1C66
:1025F0000E3300221A8026E07B691B889B081B048F
:102600001A0CBB1C1B88D31A1B041B0C1B041A0CB2
:102610007B681A807B6802337B607B6902337B6155
:10262000184B1B8A5B001A1C194BD3181A1C7B69A8
:102630009A4201D8164B7B613B1C0E333A1C0E327A
:10264000128801321A800F4B1B8A3A1C0E321288F4
:102650009A42D1D30F4B7B600C4B3B61094B1B78EB
:102660001B061B16172B03D0182B00D104E302E323
:102670003B1C0E3300221A80EDE2C04600080140E8
:10268000A01C00202C030020080002406C14002035
:1026900040030020400B00207B6804331B881B0490
:1026A0001A0CBB1C1B88D3181B041A0C3B691A801C
:1026B0003B69023398467B681B881B041B14181C5B
:1026C000FEF7AAFC031C181CFEF786F8031C0C1C62
:1026D000181C211CEF4BEE4AFEF7D2F8031C0C1C11
:1026E0001D1C261C7B6802331B881B041B14181C32
:1026F000FEF792FC031C181CFEF76EF8031C0C1C62
:10270000181C211CE44AE54BFEF7BAF8031C0C1C0C
:10271000281C311C1A1C231CFDF700FF031C0C1C79
:102720001D1C261C7B6804331B881B041B14181CEF
:10273000FEF772FC031C181CFEF74EF8031C0C1C61
:10274000181C211CD64AD74BFEF79AF8031C0C1C08
:10275000281C311C1A1C231CFDF7E0FE031C0C1C5A
:102760001D1C261C7B6806331B881B041B14181CAD
:10277000FEF752FC031C181CFEF72EF8031C0C1C61
:10278000181C211CC84AC94BFEF77AF8031C0C1C04
:10279000281C311C1A1C231CFDF7C0FE031C0C1C3A
:1027A0001D1C261C7B6808331B881B041B14181C6B
:1027B000FEF732FC031C181CFEF70EF8031C0C1C61
:1027C000181C211CBA4ABB4BFEF75AF8031C0C1C00
:1027D000281C311C1A1C231CFDF7A0FE031C0C1C1A
:1027E000181C211CFEF7E6FA031C1B041B0C1B041F
:1027F0001A0CBB1C1B88D3181B041B0C42461380ED
:102800003B69043398467B6802331B881B041B1406
:10281000181CFEF701FC031C181CFDF7DDFF031C50
:102820000C1C181C211CA24AA24BFEF729F8031C01
:102830000C1C1D1C261C7B6804331B881B041B14EA
:10284000181CFEF7E9FB031C181CFDF7C5FF031C51
:102850000C1C181C211C984A984BFEF711F8031CFD
:102860000C1C281C311C1A1C231CFDF757FE031CD2
:102870000C1C1D1C261C7B6806331B881B041B14A8
:10288000181CFEF7C9FB031C181CFDF7A5FF031C51
:102890000C1C181C211C8A4A8A4BFDF7F1FF031CF3
:1028A0000C1C281C311C1A1C231CFDF737FE031CB2
:1028B0000C1C1D1C261C7B6808331B881B041B1466
:1028C000181CFEF7A9FB031C181CFDF785FF031C51
:1028D0000C1C181C211C7C4A7C4BFDF7D1FF031CEF
:1028E0000C1C281C311C1A1C231CFDF717FE031C92
:1028F0000C1C1D1C261C7B680A331B881B041B1424
:10290000181CFEF789FB031C181CFDF765FF031C50
:102910000C1C181C211C5F4B5D4AFDF7B1FF031C0A
:102920000C1C281C311C1A1C231CFDF7F7FD031C72
:102930000C1C181C211CFEF73DFA031C1B041B0C6D
:102940001B041A0CBB1C1B88D3181B041B0C42460F
:1029500013803B69063398467B6802331B881B044F
:102960001B14181CFEF758FB031C181CFDF734FF42
:10297000031C0C1C181C211C464B454AFDF780FF0C
:10298000031C0C1C1D1C261C7B6804331B881B04A9
:102990001B14181CFEF740FB031C181CFDF71CFF42
:1029A000031C0C1C181C211C474A484BFDF768FFF0
:1029B000031C0C1C281C311C1A1C231CFDF7AEFD2B
:1029C000031C0C1C1D1C261C7B6806331B881B0467
:1029D0001B14181CFEF720FB031C181CFDF7FCFE43
:1029E000031C0C1C181C211C354A364BFDF748FFF4
:1029F000031C0C1C281C311C1A1C231CFDF78EFD0B
:102A0000031C0C1C1D1C261C7B6808331B881B0424
:102A10001B14181CFEF700FB031C181CFDF7DCFE42
:102A2000031C0C1C181C211C234A244BFDF728FFF7
:102A3000031C0C1C281C311C1A1C231CFDF76EFDEA
:102A4000031C0C1C1D1C261C7B680A331B881B04E2
:102A50001B14181CFEF7E0FA031C181CFDF7BCFE43
:102A6000031C0C1C181C211C0A4B094AFDF708FF0B
:102A7000031C0C1C281C311C1A1C231CFDF74EFDCA
:102A8000031C0C1C181C211CFEF794F920E0C04606
:102A90000000000000000000AF946588635DB4BFD3
:102AA0000E2DB29DEFA7E63F4772F90FE9B7DB3F66
:102AB0000E2DB29DEFA7A6BF0E2DB29DEFA7C63F6C
:102AC000738577B988EFED3F4F232D95B723B4BFBA
:102AD000031C1B041B0C1B041A0CBB1C1B88D318E7
:102AE0001B041B0C424613803B690822D2189046F7
:102AF0007B6804331B881B041B14181CFEF78CFA1C
:102B0000031C181CFDF768FE031C0C1C181C211C60
:102B10005E4B5D4AFDF7B4FE031C0C1C1D1C261CFD
:102B20007B6806331B881B041B14181CFEF774FA01
:102B3000031C181CFDF750FE031C0C1C181C211C48
:102B4000534A544BFDF79CFE031C0C1C281C311CE3
:102B50001A1C231CFDF7E2FC031C0C1C1D1C261C6C
:102B60007B6808331B881B041B14181CFEF754FADF
:102B7000031C181CFDF730FE031C0C1C181C211C28
:102B8000454A464BFDF77CFE031C0C1C281C311CDF
:102B90001A1C231CFDF7C2FC031C0C1C1D1C261C4C
:102BA0007B680A331B881B041B14181CFEF734FABD
:102BB000031C181CFDF710FE031C0C1C181C211C08
:102BC000374A384BFDF75CFE031C0C1C281C311CDB
:102BD0001A1C231CFDF7A2FC031C0C1C1D1C261C2C
:102BE0007B680C331B881B041B14181CFEF714FA9B
:102BF000031C181CFDF7F0FD031C0C1C181C211CE9
:102C0000294A2A4BFDF73CFE031C0C1C281C311CD6
:102C10001A1C231CFDF782FC031C0C1C181C211C15
:102C2000FEF7C8F8031C1B041B0C1B041A0CBB1C6E
:102C30001B88D3181B041B0C424613807B6804338B
:102C40007B603B690A333B613B1C0E333A1C0E32FE
:102C5000128801321A80164B1B8A181C052101F0BC
:102C600097FE031C1B041B0C3A1C0E3212889A425E
:102C700000D211E50EE30DE33B1C0E3300221A8057
:102C8000F8E2C046C046C0460E2DB29DEFA7A6BFD3
:102C90004772F90FE9B7DB3F0E2DB29DEFA7E63F74
:102CA000AF946588635DB4BF0000000000000000C1
:102CB0002C0300207B6804331B881B041A0CBB1CEC
:102CC0001B88D3181B041A0C3B691A803B6902331A
:102CD00098467B681B881B041B14181CFEF79CF984
:102CE000031C181CFDF778FD031C0C1C181C211C70
:102CF000F04BEF4AFDF7C4FD031C0C1C1D1C261CE9
:102D00007B6802331B881B041B14181CFEF784F914
:102D1000031C181CFDF760FD031C0C1C181C211C57
:102D2000E54AE64BFDF7ACFD031C0C1C281C311CCE
:102D30001A1C231CFDF7F2FB031C0C1C1D1C261C7B
:102D40007B6804331B881B041B14181CFEF764F9F2
:102D5000031C181CFDF740FD031C0C1C181C211C37
:102D6000D74AD84BFDF78CFD031C0C1C281C311CCA
:102D70001A1C231CFDF7D2FB031C0C1C1D1C261C5B
:102D80007B6806331B881B041B14181CFEF744F9D0
:102D9000031C181CFDF720FD031C0C1C181C211C17
:102DA000C94ACA4BFDF76CFD031C0C1C281C311CC6
:102DB0001A1C231CFDF7B2FB031C0C1C1D1C261C3B
:102DC0007B6808331B881B041B14181CFEF724F9AE
:102DD000031C181CFDF700FD031C0C1C181C211CF7
:102DE000BB4ABC4BFDF74CFD031C0C1C281C311CC2
:102DF0001A1C231CFDF792FB031C0C1C181C211C25
:102E0000FDF7D8FF031C1B041B0C1B041A0CBB1C76
:102E10001B88D3181B041B0C424613803B690433E8
:102E200098467B681B881B041B14181CFEF7F4F8DB
:102E3000031C181CFDF7D0FC031C0C1C181C211CC7
:102E40009C4B9B4AFDF71CFD031C0C1C1D1C261CE7
:102E50007B6802331B881B041B14181CFEF7DCF86C
:102E6000031C181CFDF7B8FC031C0C1C181C211CAF
:102E7000994A9A4BFDF704FD031C0C1C281C311CBD
:102E80001A1C231CFDF74AFB031C0C1C1D1C261CD2
:102E90007B6804331B881B041B14181CFEF7BCF84A
:102EA000031C181CFDF798FC031C0C1C181C211C8F
:102EB0008B4A8C4BFDF7E4FC031C0C1C281C311CBA
:102EC0001A1C231CFDF72AFB031C0C1C1D1C261CB2
:102ED0007B6806331B881B041B14181CFEF79CF828
:102EE000031C181CFDF778FC031C0C1C181C211C6F
:102EF0007D4A7E4BFDF7C4FC031C0C1C281C311CB6
:102F00001A1C231CFDF70AFB031C0C1C1D1C261C91
:102F10007B6808331B881B041B14181CFEF77CF805
:102F2000031C181CFDF758FC031C0C1C181C211C4E
:102F3000674A684BFDF7A4FC031C0C1C281C311CC1
:102F40001A1C231CFDF7EAFA031C0C1C181C211C7C
:102F5000FDF730FF031C1B041B0C1B041A0CBB1CCD
:102F60001B88D3181B041B0C424613803B69063395
:102F700098467B6802331B881B041B14181CFEF741
:102F80004BF8031C181CFDF727FC031C0C1C181C19
:102F9000211C4F4A4F4BFDF773FC031C0C1C1D1CDE
:102FA000261C7B6804331B881B041B14181CFEF7AB
:102FB00033F8031C181CFDF70FFC031C0C1C181C19
:102FC000211C494A494BFDF75BFC031C0C1C281CC7
:102FD000311C1A1C231CFDF7A1FA031C0C1C1D1C20
:102FE000261C7B6806331B881B041B14181CFEF769
:102FF00013F8031C181CFDF7EFFB031C0C1C181C1A
:10300000211C374A374BFDF73BFC031C0C1C281CCA
:10301000311C1A1C231CFDF781FA031C0C1C1D1CFF
:10302000261C7B6808331B881B041B14181CFDF727
:10303000F3FF031C181CFDF7CFFB031C0C1C181C12
:10304000211C254A254BFDF71BFC031C0C1C281CCE
:10305000311C1A1C231CFDF761FA031C0C1C1D1CDF
:10306000261C7B680A331B881B041B14181CFDF7E5
:10307000D3FF031C181CFDF7AFFB031C0C1C181C12
:10308000211C0C4B0A4AFDF7FBFB031C0C1C281CE3
:10309000311C1A1C231CFDF741FA031C0C1C181CC4
:1030A000211CFDF787FE031C22E0C046C046C04637
:1030B00000000000000000004F232D95B723B4BF8F
:1030C000738577B988EFED3F0E2DB29DEFA7C63F10
:1030D0000E2DB29DEFA7A6BFAF946588635DB4BF08
:1030E0000E2DB29DEFA7E63F4772F90FE9B7DB3F20
:1030F0001B041B0C1B041A0CBB1C1B88D3181B04C1
:103100001B0C424613803B690822D21890467B680C
:1031100002331B881B041B14181CFDF77DFF031CC6
:10312000181CFDF759FB031C0C1C181C211C6F4BB1
:103130006D4AFDF7A5FB031C0C1C1D1C261C7B689F
:1031400004331B881B041B14181CFDF765FF031CAC
:10315000181CFDF741FB031C0C1C181C211C644AA5
:10316000644BFDF78DFB031C0C1C281C311C1A1C26
:10317000231CFDF7D3F9031C0C1C1D1C261C7B68AB
:1031800006331B881B041B14181CFDF745FF031C8A
:10319000181CFDF721FB031C0C1C181C211C564A93
:1031A000564BFDF76DFB031C0C1C281C311C1A1C14
:1031B000231CFDF7B3F9031C0C1C1D1C261C7B688B
:1031C00008331B881B041B14181CFDF725FF031C68
:1031D000181CFDF701FB031C0C1C181C211C484A81
:1031E000484BFDF74DFB031C0C1C281C311C1A1C02
:1031F000231CFDF793F9031C0C1C1D1C261C7B686B
:103200000A331B881B041B14181CFDF705FF031C45
:10321000181CFDF7E1FA031C0C1C181C211C3A4A6F
:103220003A4BFDF72DFB031C0C1C281C311C1A1CEF
:10323000231CFDF773F9031C0C1C181C211CFDF743
:10324000B9FD031C1B041B0C1B041A0CBB1C1B88A4
:10325000D3181B041B0C424613807B6802337B602F
:103260003B690A333B613B1C0E333A1C0E32128819
:1032700001321A80264B1B8A181C052101F088FB9D
:10328000031C1B041B0C3A1C0E3212889A4200D2FB
:1032900010E5C0461F4B204A9A611E4B1B881A1C22
:1032A0002023134017D01B4B1B88042213431B04FD
:1032B0001A0C184B1A80174B1B88202293431B04AF
:1032C0001A0C144B1A80134B5B88022213431B0405
:1032D0001A0C104B5A80BD4606B004BC9046F0BC98
:1032E00001BC0047C046C0460E2DB29DEFA7A6BF49
:1032F0000E2DB29DEFA7C63F738577B988EFED3FDE
:103300004F232D95B723B4BF00000000000000003C
:103310002C030020A01C00206C14002080B500AFFE
:10332000104B1B88082293431B041A0C0D4B1A8068
:103330000D4B9B7A002B05D00A4B1B881A1C0223CD
:1033400013400BD0074B5A69064B9A61054B5B88BB
:10335000042213431B041A0C024B5A80BD4680BC46
:1033600001BC0047A01C00202C03002080B500AF4A
:103370008023DB058022D20512881204120C012161
:103380008A431204120C1A80BD4680BC01BC00475F
:1033900080B582B000AF021CFB1D1A70FB1D1B78AC
:1033A0001B061B160D2B02DDFB1D0D221A70FB1DCB
:1033B0001B781B061B16012B02DCFB1D02221A7058
:1033C000064BFA1D12781A71044B1B791B061B164B
:1033D000181CBD4602B080BC02BC08472C0300206C
:1033E00080B500AF044B1B791B061B16181CBD468D
:1033F00080BC02BC0847C0462C03002080B582B0C8
:1034000000AF021CFB1D1A70FB1D1B781B061B1650
:10341000022B02DDFB1D02221A70FB1D1B787F2B85
:1034200002D9FB1D00221A70064BFA1D12785A7140
:10343000044B5B791B061B16181CBD4602B080BCF2
:1034400002BC08472C03002080B500AF044B5B7919
:103450001B061B16181CBD4680BC02BC0847C04694
:103460002C03002080B582B000AF021CBB1D1A8067
:10347000BB1D00215A5E0F4B9A4202DABB1D0D4A5A
:103480001A80BB1D00215A5EFA235B009A4203DDBD
:10349000BB1DFA2252001A80074BBA1D1288DA802F
:1034A000BB1D1B881B041B14181CBD4602B080BC2E
:1034B00002BC08470CFEFFFF2C03002080B500AFC4
:1034C000044BDB881B041B14181CBD4680BC02BCCB
:1034D0000847C0462C03002080B582B000AF021C14
:1034E000FB1D1A70FB1D1B781B061B16002B02DC34
:1034F000FB1D01221A70FB1D1B781B061B16182BC7
:1035000002DDFB1D18221A70064BFA1D12781A7084
:10351000044B1B781B061B16181CBD4602B080BC52
:1035200002BC08472C03002080B500AF044B1B7879
:103530001B061B16181CBD4680BC02BC0847C046B3
:103540002C03002080B582B000AF021CBB1D1A8086
:10355000BB1D00215B5E002B02DABB1D00221A801E
:10356000BB1D00215A5E0E4B1B8A2E3BFF3B9A422D
:1035700007DD0B4B1B8A2E3BFF3B1B041A0CBB1DAC
:103580001A80074BBA1D12885A80054B5B881B04B2
:103590001B14181CBD4602B080BC02BC0847C046C4
:1035A0002C03002080B500AF044B5B881B041B1468
:1035B000181CBD4680BC02BC0847C0462C03002036
:1035C00080B582B000AF021CFB1D1A70FB1D1B787A
:1035D0007F2B02D9FB1D00221A70FB1D1B781B06D6
:1035E0001B16022B02DDFB1D02221A70064BFA1D70
:1035F00012789A72044B9B7A1B061B16181CBD4648
:1036000002B080BC02BC08472C03002080B500AF8C
:10361000044B9B7A1B061B16181CBD4680BC02BCC3
:103620000847C0462C03002080B582B000AF021CC2
:10363000FB1D1A70FB1D1B787F2B02D9FB1D00227E
:103640001A70FB1D1B781B061B16012B02DDFB1DD0
:1036500001221A70064BFA1D1278DA72044BDB7ADB
:103660001B061B16181CBD4602B080BC02BC0847D6
:103670002C03002080B500AF044BDB7A1B061B1621
:10368000181CBD4680BC02BC0847C0462C03002065
:1036900080B582B000AF021CBB1D1A80BB1D00218B
:1036A0005A5E0F4B9A4202DABB1D0D4A1A80BB1DAF
:1036B00000215A5E9623DB009A4203DDBB1D962251
:1036C000D2001A80074BBA1D12889A81054B9B893C
:1036D0001B041B14181CBD4602B080BC02BC08476A
:1036E00050FBFFFF2C03002080B500AF044B9B89EB
:1036F0001B041B14181CBD4680BC02BC0847C046F6
:103700002C03002080B582B000AF021CBB1D1A80C4
:10371000BB1D1A880E4B9A4203D8BB1D8022920013
:103720001A80BB1D1A888023DB009A4203D9BB1D77
:103730008022D2001A80074BBA1D12881A82054BCC
:103740001B8A181CBD4602B080BC02BC0847C0469C
:10375000FF0100002C03002080B500AF034B1B8A43
:10376000181CBD4680BC02BC0847C0462C03002084
:1037700080B582B000AF021CFB1D1A70FB1D1B78C8
:10378000052B02D9FB1D05221A70064BFA1D127873
:103790001A71044B1B79181CBD4602B080BC02BCD8
:1037A0000847C046A01C002080B500AF034B1B7922
:1037B000181CBD4680BC02BC0847C046A01C0020A7
:1037C00080B500AF034B1B88181CBD4680BC02BCF3
:1037D0000847C046A01C002080B500AF054B1B88E1
:1037E000042213431B041A0C024B1A80BD4680BCF2
:1037F00001BC0047A01C002080B500AF054B1B8812
:10380000042293431B041A0C024B1A80BD4680BC51
:1038100001BC0047A01C002080B500AF044BDB8931
:103820001B041B14181CBD4680BC02BC0847C046C4
:10383000A01C002080B582B000AF021CBB1D1A8006
:10384000BB1D00215A5E0F4B9A4202DABB1D0D4A86
:103850001A80BB1D00215A5EFA235B009A4203DDE9
:10386000BB1DFA2252001A80074BBA1D12881A811A
:10387000BB1D1B881B041B14181CBD4602B080BC5A
:1038800002BC08470CFEFFFF2C03002080B500AFF0
:10389000044B1B891B041B14181CBD4680BC02BCB6
:1038A0000847C0462C03002080B582B000AF021C40
:1038B000BB1D1A80064B5A88BB1D1B8813431B0473
:1038C0001A0C034B5A80BD4602B080BC01BC0047B5
:1038D000A01C002080B500AFBD4680BC01BC0047E5
:1038E000F0B587B002AFDE4B1B78002B2AD1DD4B41
:1038F0001A6880235B02134024D0DB4B1B88013302
:103900001B041A0CD84B1A80D84B00225A80D64B75
:103910001A88D74B9A4215D1D64B1B781B061A0E24
:10392000CF4B1A70D14B5B88032213431B041A0C34
:10393000CE4B5A80CD4B1B88012213431B041A0C1B
:10394000CA4B1A80CC4B1B78002B02D1C74B0022EC
:103950005A80C64B5B881A1C0823134009D0C34BFE
:103960005B88082293431B041A0CC04B5A8002F058
:10397000C9FDBE4B5B881A1C012313400BD0BB4B07
:103980005B88012293431B041A0CB84B5A8002F047
:10399000B9FD00F0C9FBB54B5B881A1C022313402C
:1039A00000D1A3E3B14B5B88022293431B041A0CA2
:1039B000AE4B5A80A0235B00002200920020DA2147
:1039C0001A1C162302F088FDAA4B1B791B061B1636
:1039D0009A1E131C9B009B18A84A9A18A84B0021FA
:1039E0000091A84901911020E12102F09BFDA14B1B
:1039F0005B791B061B169A00A34BD218A04B002123
:103A00000091A04901913C20E12102F08BFD994BEE
:103A10001B781B061B165A1E131C5B009B185B00B1
:103A20009A4A9A18FC23DB000021009195490191E4
:103A30007320E12102F076FD8E4B9B7A1B061A164D
:103A4000131C9B009B18924A9A18924B00210091DC
:103A50008C490191C320E12102F064FD854BDB7AA2
:103A60001B061A0E822359008A4B002000908A48B8
:103A70000190081CE32102F0A7FD7C4B1B79022B6F
:103A800031D83B1C0F33794A12791A703B1C0F3323
:103A90001A78824BD200D05A3B1C0F331A787F49D8
:103AA0000223D2008A18D31819883B1C0F331A78C6
:103AB0007A4C0423D200A218D3181A883B1C0F3367
:103AC0001C78764D0623E4002C19E3181B880004AB
:103AD000001409040914120412141B041B14704C62
:103AE0000094FDF74BFF6F4B00220092654A019254
:103AF0000E2000211A1C002302F014FD5B4B1B88D2
:103B00001A1C042313400BD0674B002200925D4A1D
:103B100001920E2000211A1C1F2302F003FD0AE06F
:103B2000624AFC23DB0000210091564901910E20DE
:103B3000002102F0F7FC5E4B1A885E4B9A4258D087
:103B40005D4B1B8801331B041A0C5B4B1A805A4BCC
:103B50001B88462B4DD13B1C0C3300221A803B1C8A
:103B60000C331A88A0235B000092002000211A1C4D
:103B7000F02302F0B1FC3B1C0C331B8800934F4B2D
:103B800001931420502100221F2302F01DFD3B1C35
:103B90000C331A88424B0092494A01921820732133
:103BA000002202F011FD3B1C0C331A883C4B0092A2
:103BB000444A01921420B421002202F005FD3B1C6E
:103BC0000C331A88364B00923F4A01925A20B22198
:103BD000002202F0F9FC3B1C0C331A88304B009297
:103BE0003A4A01925A20C821002202F0EDFC00F06E
:103BF000C9FE1E4B1B891B041B0C033B1B041B0C27
:103C000000220092324A01920220191C0122002354
:103C100002F0DAFC174BDB881B041B0C7522D31A4D
:103C20001B041A0C3B1C0C331A803B1C0C33002267
:103C30009B5E102B03DC3B1C0C3311221A803B1CB7
:103C40000C3300229B5ED92B03DD3B1C0C33D922A5
:103C50001A80064B1B79052B3CD1114B3BE0C0462B
:103C6000BF02002010E000E01C1F0020A01C00206C
:103C7000DC0500002C030020BE020020E09F0008AD
:103C8000FF0700005002002040A000084CA00008E0
:103C9000E4A000085FB30000AC010020B8010020E0
:103CA000E0FF0000F4A0000800A1000808A100083F
:103CB000BA0200204AEC0000BC02002038010020BB
:103CC0002C01002008010020140100202001002008
:103CD0008C010020E04B3A1C0A3213803B1C0C3351
:103CE0001B88033B1B041A0C3B1C0A331B88002156
:103CF0000091DA4901910220111C012202F064FCBA
:103D0000D74B3A1C0C3212881A81D54BDA88D44B27
:103D10005B79120412141B041B1400210091101C67
:103D200008211A1C052302F0D7FBFC23DB000093BB
:103D30006B2006210122082302F0CEFBFC23DB00CE
:103D400000936B2006210422012302F0C5FBFC2313
:103D5000DB0000936B200E210422012302F0BCFB48
:103D6000FC23DB000093D52006210122082302F06A
:103D7000B3FBFC23DB000093D220062104220123A5
:103D800002F0AAFBFC23DB000093D2200E210422C8
:103D9000012302F0A1FBFC23DB0000936E200A212B
:103DA0006522012302F098FBAE4B5B881B041B14B9
:103DB000652253431A1CAB4B1B8A101C191C00F0C4
:103DC000E7FD031C1B061A0E3B1C0F336E321A70E4
:103DD000A44B1B8AA448191C00F0DAFD031C1B0429
:103DE0001A0C3B1C0E331A709D4B1B79042B01D10E
:103DF0009E4B01E0FC23DB003A1C0A3213803B1C83
:103E00000F331B781B041A0C3B1C0E331B781B044E
:103E10001B0C120412141B041B14391C0A310988D0
:103E20000091101C08211A1C052302F055FB3B1CB5
:103E30000F331B781B041A0C894BDA80884B3A1C11
:103E40000E3212785A71864B5B891B041B0C033BA4
:103E50001B041B0C864A0021009180490191101C13
:103E6000191C0222002302F0AFFB7E4B9B891B042E
:103E70001B149B101B041B0C1B041A0C794BDB88B6
:103E80001B041B0CD3181B041B0C7522D31A1B0418
:103E90001A0C3B1C0C331A803B1C0C3300229B5E1B
:103EA000102B03DC3B1C0C3311221A803B1C0C33FF
:103EB00000229B5ED92B03DD3B1C0C33D9221A80D8
:103EC000674B1B79032B01D1684B00E0694B3A1C0F
:103ED0000A3213803B1C0C331B88033B1B041A0C57
:103EE00063493B1C0A331B88002000905B4801900B
:103EF000081C111C022202F067FB594B3A1C0C32C1
:103F000012885A81574B9B891B041B149B101B045E
:103F10001B0C1B041B14181CFDF77EF8031C181C3B
:103F2000FCF75AFC031C0C1C181C211C494B484A6A
:103F3000FCF7A6FC031C0C1C1D1C261C494B1B7902
:103F40001B061B169A1E4C4B9200D358181CFCF7EC
:103F500043FC031C0C1C281C311C1A1C231CFCF7E2
:103F60008FFC031C0C1C181C211CFCF74BFF031CB2
:103F70007B6078680021FDF755FA031C0BD03B1CD1
:103F80000F3320221A703C1C0A347868FDF784FA3B
:103F9000031C23800EE03B1C0F332D221A707B681C
:103FA0008022120653403C1C0A34181CFDF774FA98
:103FB000031C23803B1C0A331A88304B101C191C2D
:103FC000FDF79CFF274B1B791B061B16092B1DDCDD
:103FD0002B4B1A792A4B5A71294BDA78284B1A71D4
:103FE000274B2E22DA70264B56229A71244B002240
:103FF000DA71234B3A1C0F3212781A70204B5B781F
:10400000302B69D11E4B20225A7065E01C4B2022B8
:104010001A701B4B9A781A4B5A70194BDA78184B56
:104020009A70174B1A79164BDA70154B5A79144B54
:104030001A71134B6D225A71114B56229A71104B03
:104040000022DA713B1C0E3301221A702EE0C046AA
:104050000000000000C8E93FFF0700008C010020BD
:10406000A01C00202C0300205C760000E0FF000074
:10407000370100005FB300001CA000086D1C002089
:104080006C1C00203B1C0E331B78234AD35C302B66
:1040900012D13B1C0E331B781F4A2021D1543B1CEC
:1040A0000E333A1C0E32127801321A703B1C0E335A
:1040B0001B78032BE6D900E0C0463B1C0E333A1CAC
:1040C0000E321278013A1A703B1C0E331B78124ADA
:1040D000391C0F310978D1540F4A104B002100913F
:1040E0000F490191F020002102F01CFA0D4B5B8872
:1040F0001A1C0423134009D00A4B5B880422934303
:104100001B041A0C074B5A8000F0E0F8BD4605B0BE
:10411000F0BC01BC0047C0466C1C00201E8400009F
:1041200050020020A01C002080B584B002AFFB1D0F
:1041300001221A7021E0FB1D1B781B041B0C1A1CAA
:104140009200D3181A1C91001A1C0B1CD3181B04C4
:104150001B0C0A331B041B0C1B041B0C1B041B1421
:10416000584A0092181C11210122C82302F0B4F908
:10417000FB1DFA1D127801321A70FB1D1B780B2BE8
:10418000D9D9FB1D01221A7022E0FB1D1B781B04EC
:104190001B0C1A1C9200D3181A1C91001A1C0B1C21
:1041A000D3181B041B0C11331B041B0C1B041B0C0E
:1041B0001B041B1496225200424900910A20191C2C
:1041C000012302F089F9FB1DFA1D127801321A70E1
:1041D000FB1D1B78072BD8D996235B003A4A009227
:1041E0000A2011211A1C012302F076F996235B00A4
:1041F000354A00920A20D9211A1C012302F06CF9D9
:10420000314B00930A2011210122C82302F064F9E6
:104210009B235B002C4A0092181C11210122C82309
:1042200002F05AF9FB1D01221A701CE0FB1D1B78DD
:104230001B041B0C1A1C9200D3181B041B0C0A3302
:104240001B041B0C1B041B0C1B041B141D4A00929B
:10425000181C73210122052302F03EF9FB1DFA1DF3
:10426000127801321A70FB1D1B783B2BDED9FB1D27
:1042700001221A701CE0FB1D1B781B041B0C1A1C6E
:104280009200D3181B041B0C11331B041B0C1B04C2
:104290001B0C1B041B140B4A00929E20191C0522A8
:1042A000012302F019F9FB1DFA1D127801321A7070
:1042B000FB1D1B78272BDED9BD4602B080BC01BC9C
:1042C0000047C046CB5A0000FBDE000090B58BB023
:1042D00002AFA84B1B881A1C4023134004D0A64BE6
:1042E0007B61A64B3B6103E0A54B7B61A54B3B612A
:1042F000A04B9A69A44B5B881B041B145B00D3186A
:10430000FB60A14B1B8A5A00A04BD218FB689A4253
:1043100006D89D4B1B8A5B005B42FA68D318FB6092
:10432000994BDB881B041A0C974B1B891B041B0C35
:10433000D31A1B041A0C3B1C0A331A80FB681A8818
:104340003B1C0A331B88D3181B041A0C3B1C1A3362
:104350001A803B1C1A3300215A5E8D4B9A4203DDB2
:104360003B1C1A338A4A1A803B1C1A3300215A5EBE
:10437000884B9A4204DC3B1C1A33CE2252001A802E
:104380003B1C1E330B221A8081E0FB681A883B1C01
:104390001C331A803B1C1C331A883B1C0A331B88B5
:1043A000D3181B041A0C3B1C1C331A803B1C1C33F7
:1043B00000215A5E764B9A4203DD3B1C1C33744A43
:1043C0001A803B1C1C3300215A5E724B9A4204DC5B
:1043D0003B1C1C33CE2252001A803C1C08343B1C70
:1043E0001C3300215A5E3B1C1A3300215B5E101CFB
:1043F000191CFDF747FD031C2380BC1D3B1C1C330F
:1044000000215A5E3B1C1A3300215B5E101C191CF4
:10441000FDF756FD031C23803B1C1A333A1C1C324B
:1044200012881A80BB1D1B881B061B0E7522D31A0F
:104430001B061A0E7B691A707B6901337B61BB1DF9
:104440001B881B061A0E3B1C08331B881B061B0E01
:10445000D31A1B061B0E01331B061A0E3B691A707A
:104460003B6901333B61FB680233FB60464B1B8AAF
:104470005A00464BD218FB689A4201D8434BFB6066
:104480003B1C1E333A1C1E32128801321A803B1C20
:104490001E331A88404B9A4200D876E73F4B1B8860
:1044A000002B16D03D4B1B88013B1B041A0C3B4BC9
:1044B0001A803A4B1B88002B0BD12E4B1B881022E5
:1044C00013431B041A0C2B4B1A80354BFA22520053
:1044D0001A80002000F06CF8FFF726FE254B1B88A1
:1044E000402253401B041A0C224B1A802D4B181CDF
:1044F00000F05EF82A4B1B88002B2AD0284B1B8823
:10450000013B1B041A0C264B1A80254B1B88002BE1
:104510001FD1184B1B88102293431B041A0C154BF8
:104520001A8000230093204B01930B20CC21002202
:10453000002302F049F8002300931C4B0193C42090
:10454000CD210022002302F03FF8144BFA22920002
:104550001A80124B1B88002B07D1114B1B88002B94
:1045600003D10E4BFA2292001A80BD4609B090BCCE
:1045700001BC0047A01C0020F01D002040130020BB
:10458000201F0020C41C00202C0300206C140020DD
:10459000630200009B010000350100005020002054
:1045A000BC1C0020FF0700005C0100206801002007
:1045B00080B588B002AF021CBB1D1A80464B1B8819
:1045C0001A1C4023134050D0444B3B61444BFB60CA
:1045D0003B1C16330B221A8022E03B1C1633198831
:1045E0003B691B781A1C3B6901333B61FB681B78F4
:1045F000F8680130F86009040914120412141B044D
:104600001B14B81D00880090081C111C012201F029
:1046100063FF3B1C16333A1C1632128801321A8093
:104620003B1C16331A882F4B9A42D6D92A4B1B882B
:104630001A1C102313404AD0BB1D1B88002B46D0E8
:10464000294B00220092294A01920B20CC21002202
:1046500001F0BAFF244B00220092254A0192C420A7
:10466000CD21002201F0B0FF31E0224B3B61224B13
:10467000FB603B1C16330B221A8022E03B1C1633D6
:1046800019883B691B781A1C3B6901333B61FB6845
:104690001B78F8680130F860090409141204121438
:1046A0001B041B14B81D00880090081C111C01225B
:1046B00001F012FF3B1C16333A1C163212880132ED
:1046C0001A803B1C16331A88064B9A42D6D9BD462F
:1046D00006B080BC01BC0047A01C0020201F0020A9
:1046E000C41C002035010000CB5A00005C010020F2
:1046F00068010020F01D00204013002080B500AFAD
:10470000504B1B8A1B041B0C1A1C022313405DD048
:104710004C4B9B8E1B041A0C4B4B1A82494B494A3B
:1047200092891204120C02218A431204120C9A81FB
:10473000444B444A128C1204120C01218A43120485
:10474000120C1A843F4B404A118A404A108A3F4A51
:10475000D2891204120C821A1204120C8A18120442
:10476000120C1A87374B374A128A1204120C042192
:104770008A431204120C1A82344B1B781B061B1638
:104780000D2B03DC314B9B7A002B09D02D4B2D4A8E
:1047900092891204120C04210A431204120C9A8109
:1047A000294B1B88022213431B041A0C264B1A8028
:1047B000244B244A128A1204120C02218A43120446
:1047C000120C1A82224B802212025A611D4B1B8A44
:1047D0001B041B0C1A1C042313402FD01D4B1D4A15
:1047E000126801218A431A60164B164A128A120473
:1047F000120C04218A431204120C1A82114B114A22
:1048000092891204120C04218A431204120C9A8118
:104810008023DB058022D20512881204120C0121AC
:104820008A431204120C1A80FDF704FE064B1B8803
:10483000012213431B041A0C034B1A80BD4680BC93
:1048400001BC0047002C0140A01C00202C030020CC
:10485000000801400800024080B582B000AF204B44
:104860001A680223134035D01D4B1D4A12680221DD
:104870008A431A601A4BDA6CBB1D1A80194B5B69AC
:10488000BA1D128892081204120C1A80154B5A692C
:10489000154B1A60134B5B699A1C124B5A61114BF2
:1048A0005A69124BD968124B1B8A5B00CB189A428B
:1048B00008D30C4B5A690E4B1B8A5B005B42D21823
:1048C000084B5A61074B1B88082213431B041A0C20
:1048D000044B1A80BD4602B080BC01BC0047C046F4
:1048E00000240140A01C0020C01C00200800024041
:1048F0002C03002080B500AF1E4B1A680223134022
:1049000005D01C4B1B4A526802210A435A60194BBE
:104910001A680423134029D0174B174A128A12042D
:10492000110C164A0A401204120C1A82114B114A39
:10493000526804210A435A60114B114A126804213B
:104940008A431A600C4B0C4A92891204120C022101
:104950000A431204120C9A81074B074A128C120464
:10496000120C01210A431204120C1A84BD4680BCA9
:1049700001BC004700000240002C0140FDFDFFFF8C
:104980000800024080B500AFFEE7C046C046C04602
:104990004A1E08BF7047C0F02481884240F2168149
:1049A000114200F01781B0FA80F3B1FA81F2A2EB64
:1049B0000303C3F11F0304A202EB03134FF0000231
:1049C0009F4600BFAFF30080B0EBC17F00BF42EB5A
:1049D000020228BFA0EBC170B0EB817F00BF42EBA9
:1049E000020228BFA0EB8170B0EB417F00BF42EB19
:1049F000020228BFA0EB4170B0EB017F00BF42EB89
:104A0000020228BFA0EB0170B0EBC16F00BF42EB08
:104A1000020228BFA0EBC160B0EB816F00BF42EB88
:104A2000020228BFA0EB8160B0EB416F00BF42EBF8
:104A3000020228BFA0EB4160B0EB016F00BF42EB68
:104A4000020228BFA0EB0160B0EBC15F00BF42EBE8
:104A5000020228BFA0EBC150B0EB815F00BF42EB68
:104A6000020228BFA0EB8150B0EB415F00BF42EBD8
:104A7000020228BFA0EB4150B0EB015F00BF42EB48
:104A8000020228BFA0EB0150B0EBC14F00BF42EBC8
:104A9000020228BFA0EBC140B0EB814F00BF42EB48
:104AA000020228BFA0EB8140B0EB414F00BF42EBB8
:104AB000020228BFA0EB4140B0EB014F00BF42EB28
:104AC000020228BFA0EB0140B0EBC13F00BF42EBA8
:104AD000020228BFA0EBC130B0EB813F00BF42EB28
:104AE000020228BFA0EB8130B0EB413F00BF42EB98
:104AF000020228BFA0EB4130B0EB013F00BF42EB08
:104B0000020228BFA0EB0130B0EBC12F00BF42EB87
:104B1000020228BFA0EBC120B0EB812F00BF42EB07
:104B2000020228BFA0EB8120B0EB412F00BF42EB77
:104B3000020228BFA0EB4120B0EB012F00BF42EBE7
:104B4000020228BFA0EB0120B0EBC11F00BF42EB67
:104B5000020228BFA0EBC110B0EB811F00BF42EBE7
:104B6000020228BFA0EB8110B0EB411F00BF42EB57
:104B7000020228BFA0EB4110B0EB011F00BF42EBC7
:104B8000020228BFA0EB0110B0EBC10F00BF42EB47
:104B9000020228BFA0EBC100B0EB810F00BF42EBC7
:104BA000020228BFA0EB8100B0EB410F00BF42EB37
:104BB000020228BFA0EB4100B0EB010F00BF42EBA7
:104BC000020228BFA0EB0100104670470CBF012075
:104BD00000207047B1FA81F2C2F11F0220FA02F000
:104BE000704708B14FF0FF3000F00EB80029F8D040
:104BF0002DE90340FFF7CCFEBDE8064002FB00F3C1
:104C0000A1EB0301704700BF704700BF002100F017
:104C100004B80C4B5B58435004310B480B4B421803
:104C20009A42FFF4F6AF0A4A00F003B8002342F8B4
:104C3000043B084B9A42FFF4F9AF04F0C1F800F0CE
:104C40000DF8704780B6000800000020B802002070
:104C5000B802002054200020FFF7FEBF2DE9F04FDE
:104C6000434B83B09847434B9847434B9B681C0486
:104C700001D4424B98474FF6DC70414DA847414C58
:104C8000414B4FF6DC706360A847A368180401D459
:104C90003E4B98473E4A3B4B3E4C5A603E4B9847F2
:104CA0003E4B98473E4B98473E483F49A0473F48B8
:104CB0003D49A0473E483C49A0473E483A49A047A5
:104CC0003D4B98473D4B98473D4B98473D4B984748
:104CD0003D4B984749F2413283B2934240F0E08223
:104CE0003A4A184613803A4902223A4B98473A4DBD
:104CF0003A4B002698473A4F3A4B98473A4C18207F
:104D00004B21324640F2FF7301950096374DA04784
:104D100018205F21324640F2FF738DE8C000A047A3
:104D2000334C1820A021234A4FF6FF7300960195BB
:104D3000A0471820B4212F4A4FF6FF730096019523
:104D4000A0472D4A1820D2214FF6FF7300960195F7
:104D5000A0472A4B98472A4B9847DFF8ACB0294A1E
:104D60000923DFF8A8901680ABF800306AE000BF96
:104D70000153000889530008000C0140856E0008AB
:104D80003D6100080010014000003083F973000805
:104D9000000030335954000879930008A98B0008AB
:104DA000F153000810A1000800380140A0A100083C
:104DB0008CA1000878A1000811550008795400085A
:104DC000C15400083D58000829600008C2020020B4
:104DD000E80200206561000838020020295500081B
:104DE00044020020C9660008C9650008500200207E
:104DF00025650008F80000201CA10008FD6D0008D2
:104E0000B160000812030020C80200201403002033
:104E1000B9F80030DA0700F10081B9F80630002B4C
:104E200040F00681DFF8A8C2BCF8003013B9FB07D8
:104E300000F1048107F00807BFB2002F40F0128193
:104E4000BBF800300D2B01D0894B9847894EB047F5
:104E500000F080039BB20746002B00F0CD80DFF806
:104E600078C2BCF80030D90740F1C680DFF86CE2A8
:104E700000264FF29E78BEF800A04346CD201421B4
:104E80007D4A00960195A0477C4A7D49B2F9000011
:104E90007C4B98470AF0040A1FFA8AFAB24514BFFD
:104EA000C2464FF01F0A02461421F72053460096CF
:104EB0000195A0474346CD202421734A00960195D1
:104EC000A047DFF81CC26E49BCF900006D4A90474C
:104ED000242102465346F72000960195A0476B4ACD
:104EE0004346CD20342100960195A047684BDFF85A
:104EF00094C16349B3F90000E047342102465346A8
:104F0000F72000960195A0474346CD204421614AF1
:104F100000960195A047DFF8CCE15949BEF90000A1
:104F2000584A9047442102465346F720009601957F
:104F3000A047594A4346CD20542100960195A047E9
:104F4000564BDFF840C14E49B3F90000E047542109
:104F500002465346F72000960195A04743460F208E
:104F600014214F4A00960195A04743460F20242163
:104F70004C4A00960195A04743460F2034214A4AE7
:104F800000960195A0474346484A009601950F2098
:104F90004421A047DFF844E1BEF80030F04603F0BA
:104FA000020292B2002A40F0A18003F008039BB2F3
:104FB000002B00F047810026392014213C4A4FF293
:104FC0009E7300960195A04739202421384A4FF25C
:104FD0009E7300960195A04739203421344A4FF240
:104FE0009E7300960195A0470096019539204421B3
:104FF0002F4A4FF29E73A047DFF8ECE09EF8003096
:10500000002B3FF405AF00228EF80020294A90477C
:10501000B9F80030DA077FF500AF274A23F0010323
:105020001380264B9847B9F80630002B3FF4FAAEB0
:10503000234EB047204B0022DA80F3E6214A904706
:10504000214E0420214B9847B04780B2122840F2ED
:1050500008811F4B07F008072822BFB21A80002FD3
:105060003FF4EEAE174A90471A4B9847E8E600BF68
:10507000E1380008C137000828A10008CA02002052
:10508000E8020020C17A000830A1000838A1000819
:10509000D002002040A1000848A10008DA02002048
:1050A00050A1000858A1000860A1000864A10008F0
:1050B00070A10008F12000081403002019680008FE
:1050C000D18700089976000829350008A93800081A
:1050D000C60200201D330008E40200201203002055
:1050E000DE02002010030020C4020020DFF8F0C11F
:1050F00003210A466E4BDCF80000DFF8C0C1E04730
:10510000DFF8E0E16B4ABEF80030694852F823103E
:10511000694B98476648DFF8A8C1E047DFF8C8E167
:105120001FFA80F8BEF800209045C0F0B180DFF88B
:10513000B8C14FF0000A392014215D4A4FF29E7326
:10514000CDF800A00195ACF80080A047DFF89CE105
:1051500003210A46564BDEF80000584EB047DFF8F0
:1051600090C1DFF850E1BCF80030534A5EF82310DC
:105170004F4890474E48524B9847524E328886B21D
:1051800096427BD3DFF83CE14FF0000A392024211E
:10519000474A4FF29E73CDF800A00195AEF800602B
:1051A000494EA0470321DFF814C10A46404B30683E
:1051B000E047DFF83CE13F4ABEF800303C4852F897
:1051C00023103D4B98473E4E3948B047DFF824C185
:1051D0001FFA80F8BCF80020904546D3DFF814C1D0
:1051E0000026009639203421314A4FF29E730195F2
:1051F000ACF80080A047DFF800E103212C4BDEF87B
:105200000000DFF8B8C00122E0472D4A2848904747
:105210002E4B274AB3F800A093F8028000968646EA
:1052200002EB000C2A4E01954FF29E7322F80EA05D
:10523000392044218CF80280A047338823F00803EA
:105240003380D9E600933920462314217822DFF8F1
:1052500084C0E047B8F8003043F00803A8F80030F5
:10526000A9E6DFF898C0E047E4E5CDF800A03920D2
:105270003421D2001023174EB047AFE7CDF800A07D
:1052800039202421D2001023DFF848C0E04779E715
:10529000009639201421D20010230E4EB04746E765
:1052A0000D4B98470D4B49F2253018801BE500BF88
:1052B000E80200205C02002011010008BD880008FF
:1052C0001902000858200020CC0200206CA1000820
:1052D00012030020D964000809560008C202002009
:1052E000D4020020DC0200205620002028030020E9
:1052F000D802002054200020E0020020F120000805
:105300001C4B1D4910B519601C490022596015211C
:105310009A60DA601A6159610721D96144F63D61EA
:1053200099611A625A621A6812F4003F5A681DD0D5
:1053300022F003025A605A6842F001025A605A6829
:1053400042F480325A600B4C0D4B4CF250302360CB
:105350000C4B984723689B0107D5636823F0030330
:105360006360636843F00203636010BD22F480321F
:105370005A60E8E7001002408100010000841D002F
:10538000810001013D61000830B41048104D114901
:105390000560114D4FF6FF724560C2604FF033302B
:1053A00008600E480E4C4860CA600E490E4B6160A2
:1053B000E2600E4A442111605A6822F0E0625A60AD
:1053C0005A6842F000725A6030BC704700080140D1
:1053D000404444B4000C0140B4444434BB33888896
:1053E0000010014000003033000001400014014073
:1053F00010B5002384B00C4CADF80430ADF8063085
:10540000ADF80830ADF80C300C23694620464FF457
:105410001642ADF80A30054B00929847204601210C
:10542000034B984704B010BD00380140AD8F000811
:105430007191000870B5064D06460C462046802145
:10544000A8470028FAD020463146024B984770BD45
:105450003D920008E191000870B5044600780D46C1
:1054600030B1044E2946B04714F8010F0028F9D195
:1054700070BD00BF35540008104B802018800022FA
:105480004FF440509A801A819A811A829A82188326
:1054900010209A83188440F60F609A84052118859D
:1054A00009209885998619879A87A3F84020A3F840
:1054B0004820A3F84C2081221A8070470004004045
:1054C000124B80211980002246F260019A801A81D5
:1054D0001A829A821A8399834FF48851198440F66C
:1054E000FF719A841A859985A1F500619A861A87B9
:1054F0009987A1F58061A3F84010A3F84820A3F88C
:105500004C209A8181221A80704700BF0008004019
:10551000034B00229A6007221A60024A5A607047C1
:1055200010E000E040190100104B002240F6FF712E
:105530001A605A609A60DA601A615A619A61DA6197
:105540001A6259629A62DA621A635A639A639A68B3
:10555000194642F004029A608B68044A5807FBD54A
:10556000936843F001039360704700BF0028014037
:105570004163836843F00103836003689B07FCD5A4
:10558000C06C80B2704700BF2DE9F84F1B4C1C4D1A
:105590004FF400574FF480498246DFF868800220BC
:1055A0006761C4F814908B46C047EB684FF400461F
:1055B00003F47F4343EA1A23EB6066612661EB68DC
:1055C000022003F47F434AEA0303EB60666126612D
:1055D000C4F81090C047EB6803F47F4343EA1B23F1
:1055E000EB6066612661EB6803F47F434BEA0303DB
:1055F000EB60666126612761BDE8F88F001001400D
:10560000000C01403D610008F8B5724E4FF4006790
:10561000714D41F288303761A8474FF6E850776105
:10562000A8474FF6FF70A8474FF6FF70A8470A2417
:105630003761013C4FF6FF70A4B2A847664E002CBC
:10564000F7D141F28830654DB04701204FF48071A9
:10565000A84702204FF4E061A84703203821A8475B
:1056600004202146A847082040F20721A847092026
:105670002146A8470A202146A8470C202146A847D2
:105680000D202146A8470F202146A847102021467B
:10569000A84711200721A84712202146A847132018
:1056A0002146A84707200121A84720210720A84715
:1056B0004CF25030B0474CF25030B047102041F21D
:1056C0009021A84740F221211120A8474CF25030E8
:1056D000B0474CF25030B04781211220A8474CF21D
:1056E0005030B0474CF25030B04713204FF4A8511F
:1056F000A84729200C21A8470D212B20A8474CF2B0
:105700005030B0474CF25030B04720202146A847D7
:1057100021204FF48071A847302040F20331A84780
:1057200031200621A84732200121A84735204FF417
:105730000171A84736200421A847372040F20741CD
:10574000A84738202146A847392040F20441A847FD
:105750003C2040F20241A8473D200421A8475020A8
:105760002146A8475120EF21A84752202146A847AB
:10577000532040F23F11A84760204FF41C51A84726
:1057800061200121A8476A202146A84780202146A0
:10579000A84781202146A84782202146A847832088
:1057A0002146A84784202146A84785202146A847AE
:1057B00090201021A84792204FF4C061A8470720ED
:1057C00040F23311A8474CF25030B0474CF2503001
:1057D000B047F8BD000C01403D6100088955000844
:1057E000F8B50F4C4FF400530E4E63614FF48043F5
:1057F00002200D4F6361B847F3684FF4004503F48E
:105800007F43F360022065612561B847F36803F4C4
:105810007F4343F02203F36065612561F8BD00BF5B
:1058200000100140000C01403D610008024B4FF4A4
:1058300000521A61704700BF00100140F8B59C4E3D
:105840004FF4006741F288309A4D3761A8474FF610
:10585000E8507761A8470A2437614FF6FF70A847E0
:10586000631E13F0FF04F8D1934B4FF4005290489D
:105870004FF480465A615E61C4684FF4004104F4FD
:105880007F4444F0CF04C460596119611E611A61FC
:105890005A611E61C768642407F47F47C760596175
:1058A00019611A615A611E61C76807F47F4747F0A2
:1058B000C107C760596119611A615A611E61C768E1
:1058C00007F47F4747F03007C760596119611A61D3
:1058D0005A615E61C76807F47F4747F0ED07C7600C
:1058E000596119611E611A615A611E61C76807F426
:1058F0007F4747F06707C760596119611A615A61AC
:105900001E61C76807F47F4747F00307C760596106
:1059100019611A615A611E61C76807F47F4747F031
:105920001207C760596119611A615A611E61C7681F
:1059300007F47F4747F08107C760596119611A6111
:105940005A615E61C76807F47F4747F0CB07C760BD
:10595000596119611E611A615A611E61C76807F4B5
:105960007F4747F03907C760596119611A615A6169
:105970001E61C76807F47F4747F02C07C76059616D
:1059800019611A615A611E61C76807F47F47C760D1
:10599000596119611A615A611E61C76807F47F472E
:1059A00047F03407C760596119611A615A611E6175
:1059B000C76807F47F4747F00207C760596119615C
:1059C0001A615A615E61C76807F47F4747F0EA07CA
:1059D000C760596119611E611A615A611E61C76809
:1059E00007F47F47C760596119611A615A611E61E6
:1059F000C76807F47F47C760596119611A615A6126
:105A00005E61C76807F47F4747F0E807C7605961E0
:105A100019611E611A615A611E61C76807F47F47E8
:105A200047F08507C760596119611A615A611E61A3
:105A3000C76807F47F4747F00A07C76059611961D3
:105A40001A615A611E61C76807F47F4747F07807FB
:105A5000C760596119611A615A615E61C76807F4CC
:105A60007F4747F0F707C760596119611E611A61E6
:105A70005A611E61C76807F47F4747F02007C76077
:105A8000596119611A615A615E61C76807F47F47FD
:105A900047F0C007C760596119611E611A615A61F8
:105AA0001E61C76807F47F4747F02607C76005E017
:105AB000000C01403D61000800100140596119616E
:105AC0001A615A615E61C76807F47F4747F0C107F2
:105AD000C760596119611E611A615A611E61C76808
